{
    "contractName": "Yolo",
    "abi": [
        {
            "inputs": [],
            "stateMutability": "nonpayable",
            "type": "constructor"
        },
        {
            "inputs": [],
            "name": "AllowanceOverflow",
            "type": "error"
        },
        {
            "inputs": [],
            "name": "AllowanceUnderflow",
            "type": "error"
        },
        {
            "inputs": [],
            "name": "AlreadyInitialized",
            "type": "error"
        },
        {
            "inputs": [],
            "name": "InsufficientAllowance",
            "type": "error"
        },
        {
            "inputs": [],
            "name": "InsufficientBalance",
            "type": "error"
        },
        {
            "inputs": [],
            "name": "InvalidPermit",
            "type": "error"
        },
        {
            "inputs": [],
            "name": "NewOwnerIsZeroAddress",
            "type": "error"
        },
        {
            "inputs": [],
            "name": "NoHandoverRequest",
            "type": "error"
        },
        {
            "inputs": [],
            "name": "Permit2AllowanceIsFixedAtInfinity",
            "type": "error"
        },
        {
            "inputs": [],
            "name": "PermitExpired",
            "type": "error"
        },
        {
            "inputs": [],
            "name": "TotalSupplyOverflow",
            "type": "error"
        },
        {
            "inputs": [],
            "name": "Unauthorized",
            "type": "error"
        },
        {
            "anonymous": false,
            "inputs": [
                {
                    "indexed": true,
                    "internalType": "address",
                    "name": "owner",
                    "type": "address"
                },
                {
                    "indexed": true,
                    "internalType": "address",
                    "name": "spender",
                    "type": "address"
                },
                {
                    "indexed": false,
                    "internalType": "uint256",
                    "name": "amount",
                    "type": "uint256"
                }
            ],
            "name": "Approval",
            "type": "event"
        },
        {
            "anonymous": false,
            "inputs": [
                {
                    "indexed": true,
                    "internalType": "address",
                    "name": "pendingOwner",
                    "type": "address"
                }
            ],
            "name": "OwnershipHandoverCanceled",
            "type": "event"
        },
        {
            "anonymous": false,
            "inputs": [
                {
                    "indexed": true,
                    "internalType": "address",
                    "name": "pendingOwner",
                    "type": "address"
                }
            ],
            "name": "OwnershipHandoverRequested",
            "type": "event"
        },
        {
            "anonymous": false,
            "inputs": [
                {
                    "indexed": true,
                    "internalType": "address",
                    "name": "oldOwner",
                    "type": "address"
                },
                {
                    "indexed": true,
                    "internalType": "address",
                    "name": "newOwner",
                    "type": "address"
                }
            ],
            "name": "OwnershipTransferred",
            "type": "event"
        },
        {
            "anonymous": false,
            "inputs": [
                {
                    "indexed": true,
                    "internalType": "address",
                    "name": "user",
                    "type": "address"
                },
                {
                    "indexed": true,
                    "internalType": "uint256",
                    "name": "roles",
                    "type": "uint256"
                }
            ],
            "name": "RolesUpdated",
            "type": "event"
        },
        {
            "anonymous": false,
            "inputs": [
                {
                    "indexed": true,
                    "internalType": "address",
                    "name": "from",
                    "type": "address"
                },
                {
                    "indexed": true,
                    "internalType": "address",
                    "name": "to",
                    "type": "address"
                },
                {
                    "indexed": false,
                    "internalType": "uint256",
                    "name": "amount",
                    "type": "uint256"
                }
            ],
            "name": "Transfer",
            "type": "event"
        },
        {
            "inputs": [],
            "name": "DOMAIN_SEPARATOR",
            "outputs": [
                {
                    "internalType": "bytes32",
                    "name": "result",
                    "type": "bytes32"
                }
            ],
            "stateMutability": "view",
            "type": "function"
        },
        {
            "inputs": [
                {
                    "internalType": "address",
                    "name": "owner",
                    "type": "address"
                },
                {
                    "internalType": "address",
                    "name": "spender",
                    "type": "address"
                }
            ],
            "name": "allowance",
            "outputs": [
                {
                    "internalType": "uint256",
                    "name": "result",
                    "type": "uint256"
                }
            ],
            "stateMutability": "view",
            "type": "function"
        },
        {
            "inputs": [
                {
                    "internalType": "address",
                    "name": "spender",
                    "type": "address"
                },
                {
                    "internalType": "uint256",
                    "name": "amount",
                    "type": "uint256"
                }
            ],
            "name": "approve",
            "outputs": [
                {
                    "internalType": "bool",
                    "name": "",
                    "type": "bool"
                }
            ],
            "stateMutability": "nonpayable",
            "type": "function"
        },
        {
            "inputs": [
                {
                    "internalType": "address",
                    "name": "owner",
                    "type": "address"
                }
            ],
            "name": "balanceOf",
            "outputs": [
                {
                    "internalType": "uint256",
                    "name": "result",
                    "type": "uint256"
                }
            ],
            "stateMutability": "view",
            "type": "function"
        },
        {
            "inputs": [
                {
                    "internalType": "address",
                    "name": "from",
                    "type": "address"
                },
                {
                    "internalType": "uint256",
                    "name": "amount",
                    "type": "uint256"
                }
            ],
            "name": "burn",
            "outputs": [],
            "stateMutability": "nonpayable",
            "type": "function"
        },
        {
            "inputs": [],
            "name": "cancelOwnershipHandover",
            "outputs": [],
            "stateMutability": "payable",
            "type": "function"
        },
        {
            "inputs": [
                {
                    "internalType": "address",
                    "name": "pendingOwner",
                    "type": "address"
                }
            ],
            "name": "completeOwnershipHandover",
            "outputs": [],
            "stateMutability": "payable",
            "type": "function"
        },
        {
            "inputs": [],
            "name": "decimals",
            "outputs": [
                {
                    "internalType": "uint8",
                    "name": "",
                    "type": "uint8"
                }
            ],
            "stateMutability": "view",
            "type": "function"
        },
        {
            "inputs": [
                {
                    "internalType": "address",
                    "name": "user",
                    "type": "address"
                },
                {
                    "internalType": "uint256",
                    "name": "roles",
                    "type": "uint256"
                }
            ],
            "name": "grantRoles",
            "outputs": [],
            "stateMutability": "payable",
            "type": "function"
        },
        {
            "inputs": [
                {
                    "internalType": "address",
                    "name": "user",
                    "type": "address"
                },
                {
                    "internalType": "uint256",
                    "name": "roles",
                    "type": "uint256"
                }
            ],
            "name": "hasAllRoles",
            "outputs": [
                {
                    "internalType": "bool",
                    "name": "",
                    "type": "bool"
                }
            ],
            "stateMutability": "view",
            "type": "function"
        },
        {
            "inputs": [
                {
                    "internalType": "address",
                    "name": "user",
                    "type": "address"
                },
                {
                    "internalType": "uint256",
                    "name": "roles",
                    "type": "uint256"
                }
            ],
            "name": "hasAnyRole",
            "outputs": [
                {
                    "internalType": "bool",
                    "name": "",
                    "type": "bool"
                }
            ],
            "stateMutability": "view",
            "type": "function"
        },
        {
            "inputs": [
                {
                    "internalType": "address",
                    "name": "to",
                    "type": "address"
                },
                {
                    "internalType": "uint256",
                    "name": "amount",
                    "type": "uint256"
                }
            ],
            "name": "mint",
            "outputs": [],
            "stateMutability": "nonpayable",
            "type": "function"
        },
        {
            "inputs": [],
            "name": "name",
            "outputs": [
                {
                    "internalType": "string",
                    "name": "",
                    "type": "string"
                }
            ],
            "stateMutability": "pure",
            "type": "function"
        },
        {
            "inputs": [
                {
                    "internalType": "address",
                    "name": "owner",
                    "type": "address"
                }
            ],
            "name": "nonces",
            "outputs": [
                {
                    "internalType": "uint256",
                    "name": "result",
                    "type": "uint256"
                }
            ],
            "stateMutability": "view",
            "type": "function"
        },
        {
            "inputs": [],
            "name": "owner",
            "outputs": [
                {
                    "internalType": "address",
                    "name": "result",
                    "type": "address"
                }
            ],
            "stateMutability": "view",
            "type": "function"
        },
        {
            "inputs": [
                {
                    "internalType": "address",
                    "name": "pendingOwner",
                    "type": "address"
                }
            ],
            "name": "ownershipHandoverExpiresAt",
            "outputs": [
                {
                    "internalType": "uint256",
                    "name": "result",
                    "type": "uint256"
                }
            ],
            "stateMutability": "view",
            "type": "function"
        },
        {
            "inputs": [
                {
                    "internalType": "address",
                    "name": "owner",
                    "type": "address"
                },
                {
                    "internalType": "address",
                    "name": "spender",
                    "type": "address"
                },
                {
                    "internalType": "uint256",
                    "name": "value",
                    "type": "uint256"
                },
                {
                    "internalType": "uint256",
                    "name": "deadline",
                    "type": "uint256"
                },
                {
                    "internalType": "uint8",
                    "name": "v",
                    "type": "uint8"
                },
                {
                    "internalType": "bytes32",
                    "name": "r",
                    "type": "bytes32"
                },
                {
                    "internalType": "bytes32",
                    "name": "s",
                    "type": "bytes32"
                }
            ],
            "name": "permit",
            "outputs": [],
            "stateMutability": "nonpayable",
            "type": "function"
        },
        {
            "inputs": [],
            "name": "renounceOwnership",
            "outputs": [],
            "stateMutability": "payable",
            "type": "function"
        },
        {
            "inputs": [
                {
                    "internalType": "uint256",
                    "name": "roles",
                    "type": "uint256"
                }
            ],
            "name": "renounceRoles",
            "outputs": [],
            "stateMutability": "payable",
            "type": "function"
        },
        {
            "inputs": [],
            "name": "requestOwnershipHandover",
            "outputs": [],
            "stateMutability": "payable",
            "type": "function"
        },
        {
            "inputs": [
                {
                    "internalType": "address",
                    "name": "user",
                    "type": "address"
                },
                {
                    "internalType": "uint256",
                    "name": "roles",
                    "type": "uint256"
                }
            ],
            "name": "revokeRoles",
            "outputs": [],
            "stateMutability": "payable",
            "type": "function"
        },
        {
            "inputs": [
                {
                    "internalType": "address",
                    "name": "user",
                    "type": "address"
                }
            ],
            "name": "rolesOf",
            "outputs": [
                {
                    "internalType": "uint256",
                    "name": "roles",
                    "type": "uint256"
                }
            ],
            "stateMutability": "view",
            "type": "function"
        },
        {
            "inputs": [],
            "name": "symbol",
            "outputs": [
                {
                    "internalType": "string",
                    "name": "",
                    "type": "string"
                }
            ],
            "stateMutability": "pure",
            "type": "function"
        },
        {
            "inputs": [],
            "name": "totalSupply",
            "outputs": [
                {
                    "internalType": "uint256",
                    "name": "result",
                    "type": "uint256"
                }
            ],
            "stateMutability": "view",
            "type": "function"
        },
        {
            "inputs": [
                {
                    "internalType": "address",
                    "name": "to",
                    "type": "address"
                },
                {
                    "internalType": "uint256",
                    "name": "amount",
                    "type": "uint256"
                }
            ],
            "name": "transfer",
            "outputs": [
                {
                    "internalType": "bool",
                    "name": "",
                    "type": "bool"
                }
            ],
            "stateMutability": "nonpayable",
            "type": "function"
        },
        {
            "inputs": [
                {
                    "internalType": "address",
                    "name": "from",
                    "type": "address"
                },
                {
                    "internalType": "address",
                    "name": "to",
                    "type": "address"
                },
                {
                    "internalType": "uint256",
                    "name": "amount",
                    "type": "uint256"
                }
            ],
            "name": "transferFrom",
            "outputs": [
                {
                    "internalType": "bool",
                    "name": "",
                    "type": "bool"
                }
            ],
            "stateMutability": "nonpayable",
            "type": "function"
        },
        {
            "inputs": [
                {
                    "internalType": "address",
                    "name": "newOwner",
                    "type": "address"
                }
            ],
            "name": "transferOwnership",
            "outputs": [],
            "stateMutability": "payable",
            "type": "function"
        }
    ],
    "bytecode": "608080604052346100445733638b78c6d81955335f7f8be0079c531659141344cd1fd0a4f28419497f9722a3daafe3b4186f6b6457e08180a3610cfb90816100498239f35b5f80fdfe604060808152600480361015610013575f80fd5b5f3560e01c90816306fdde0314610b2b578163095ea7b314610a9257816318160ddd14610a6c578163183a4f6e14610a555781631c10893f146109f65781631cd64df4146109bd57816323b872dd146108dc57816325692962146108935781632de9480714610860578163313ce567146108455781633644e515146107b357816340c10f191461071c5781634a4ee7b1146106f3578163514e62fc146106bb57816354d1f13d1461067757816370a0823114610644578163715018a6146106005781637ecebe00146105cd5781638da5cb5b146105a157816395d89b41146105685781639dc29fac146104d9578163a9059cbb14610461578163d505accf14610297578163dd62ed3e14610263578163f04e283e146101e6578163f2fde38b1461017c575063fee81cf414610146575f80fd5b3461017857602036600319011261017857602090610162610ba3565b63389a75e1600c525f5281600c20549051908152f35b5f80fd5b602036600319011261017857610190610ba3565b90610199610c44565b8160601b156101db575060018060a01b0316638b78c6d8198181547f8be0079c531659141344cd1fd0a4f28419497f9722a3daafe3b4186f6b6457e05f80a355005b637448fbae5f52601cfd5b6020366003190112610178576101fa610ba3565b90610203610c44565b63389a75e1600c52815f526020600c20908154421161025857505f905560018060a01b0316638b78c6d8198181547f8be0079c531659141344cd1fd0a4f28419497f9722a3daafe3b4186f6b6457e05f80a355005b636f5e88185f52601cfd5b8234610178578060031936011261017857602090610290610282610ba3565b61028a610bb9565b90610c07565b9051908152f35b82346101785760e0366003190112610178576102b1610ba3565b906102ba610bb9565b9060443592606435936084359260ff84168403610178576001600160a01b03948516956e22d473030f116ddee9f6b43ac78ba38718831915171561045557610300610bcf565b946020958681019063596f6c6f60e01b8252519020908242116104495760c0978451961697889665383775081901600e52875f5288600c2094855480957f8b73c3c69bb8fe3d512ecc4cf759cc79239f7b179b0ffacaa9a75d522b39400f84528b84019081528d8985017fc89efdaa54c0f20c7adf612882df0950f5a951637e0307cdcb4c672f298b8bc68152606086019c8d469052608087019330855260a08820602e527f6e71edae12b1b97f4d1f60370fef10105fa2faae0126114a169c64845d6126c988525252898b525260a082015220604e526042602c205f5260ff16865260a435835260c435606052858060805f60015afa90873d510361043d577f8c5be1e5ebec7d5bd14f71427d1e84f3dd0314c0f7b2291e5b200ac8c7c3b92597989950019055866303faf4f960a51b1790526034602c2055a3005b8963ddafbaef5f52601cfd5b89631a15a3cc5f52601cfd5b87633f68539a5f52601cfd5b823461017857806003193601126101785761047a610ba3565b602435906387a211a2600c52335f5260209384600c20908154908185116104ce575083900390555f5282600c208181540190558252600c5160601c335f80516020610ca68339815191528480a35160018152f35b63f4d678b85f52601cfd5b823461017857366003190112610178576104f1610ba3565b602435638b78c6d8600c52335f5260026020600c2054161561055c576387a211a2600c52815f526020600c208054938483116104ce5750815f940390556805345cdf77eb68f44c818154039055825260018060a01b03165f80516020610ca6833981519152602083a3005b826382b429005f52601cfd5b8234610178575f3660031901126101785761059d90610585610bcf565b9063594f4c4f60e01b60208301525191829182610b5c565b0390f35b8234610178575f36600319011261017857638b78c6d8195490516001600160a01b039091168152602090f35b8234610178576020366003190112610178576020906105ea610ba3565b6338377508600c525f5281600c20549051908152f35b5f36600319011261017857610613610c44565b5f638b78c6d8198181547f8be0079c531659141344cd1fd0a4f28419497f9722a3daafe3b4186f6b6457e08280a355005b823461017857602036600319011261017857602090610661610ba3565b6387a211a2600c525f5281600c20549051908152f35b5f3660031901126101785763389a75e1600c52335f525f6020600c2055337ffa7b8eab7da67f412cc9575ed43464468f9bfbae89d1675917346ca6d8fe3c925f80a2005b82346101785780600319360112610178576020906106d7610ba3565b638b78c6d8600c525f5260243582600c20541615159051908152f35b826003193601126101785761071a610709610ba3565b610711610c44565b60243590610c60565b005b82346101785736600319011261017857610734610ba3565b60243591638b78c6d8600c52335f5260016020600c205416156107a8576805345cdf77eb68f44c80549184830192831061079d5750556387a211a2600c525f526020600c20818154019055602052600c5160601c5f5f80516020610ca6833981519152602080a3005b63e5cfe9575f52601cfd5b6382b429005f52601cfd5b8234610178575f3660031901126101785760209060a06107d1610bcf565b8381019063596f6c6f60e01b82525190208251907f8b73c3c69bb8fe3d512ecc4cf759cc79239f7b179b0ffacaa9a75d522b39400f8252848201527fc89efdaa54c0f20c7adf612882df0950f5a951637e0307cdcb4c672f298b8bc683820152466060820152306080820152209051908152f35b8234610178575f366003190112610178576020905160128152f35b82346101785760203660031901126101785760209061087d610ba3565b638b78c6d8600c525f5281600c20549051908152f35b5f3660031901126101785763389a75e1600c52335f526202a30042016020600c2055337fdbf36a107da19e49527a7176a1babf963b4b0ff8cde35ee35d6cd8f1f9ac7e1d5f80a2005b8234610178576060366003190112610178576108f6610ba3565b6108fe610bb9565b604435908260601b6e22d473030f116ddee9f6b43ac78ba33303610974575b6387a211a217600c5260209485600c20908154908185116104ce575083900390555f52600c8481208054830190559084525160601c906001600160a01b03165f80516020610ca68339815191528480a35160018152f35b33602052637f5e9f208117600c526034600c2090815491821961099a575b50905061091d565b8285116109b157846387a211a29303905587610992565b876313be252b5f52601cfd5b82346101785780600319360112610178576020906109d9610ba3565b60243590638b78c6d8600c525f528083600c205416149051908152f35b8260031936011261017857610a09610ba3565b610a11610c44565b638b78c6d8600c525f526020600c20602435815417809155600c5160601c7f715ad5ce61fc9595c7b415289d59cf203f23a94fa06f04af7e489a0a76e1fe265f80a3005b60203660031901126101785761071a903533610c60565b8234610178575f366003190112610178576020906805345cdf77eb68f44c549051908152f35b8234610178578060031936011261017857610aab610ba3565b602435906001600160a01b0381166e22d473030f116ddee9f6b43ac78ba3188219151715610b1f57602080945052637f5e9f20600c52335f52806034600c20555f52602c5160601c337f8c5be1e5ebec7d5bd14f71427d1e84f3dd0314c0f7b2291e5b200ac8c7c3b925845fa35160018152f35b83633f68539a5f52601cfd5b8234610178575f3660031901126101785761059d90610b48610bcf565b9063596f6c6f60e01b602083015251918291825b602080825282518183018190529093925f5b828110610b8f57505060409293505f838284010152601f8019910116010190565b818101860151848201604001528501610b6e565b600435906001600160a01b038216820361017857565b602435906001600160a01b038216820361017857565b604051906040820182811067ffffffffffffffff821117610bf35760405260048252565b634e487b7160e01b5f52604160045260245ffd5b906001600160a01b0381166e22d473030f116ddee9f6b43ac78ba314610c3d57602052637f5e9f20600c525f526034600c205490565b50505f1990565b638b78c6d819543303610c5357565b6382b429005f526004601cfd5b638b78c6d8600c525f526020600c2090815490811618809155600c5160601c7f715ad5ce61fc9595c7b415289d59cf203f23a94fa06f04af7e489a0a76e1fe265f80a356feddf252ad1be2c89b69c2b068fc378daa952ba7f163c4a11628f55a4df523b3efa2646970667358221220e1b48755719e44df671ccde50a0d82ddcc7954df90191705c15bb8de71f5efa464736f6c63430008180033",
    "sourcePath": "/home/user/Development/yolo/packages/contracts/src/Yolo.sol",
    "compiler": {
        "name": "solc",
        "version": "0.8.24+commit.e11b9ed9"
    },
    "functionHashes": {
        "DOMAIN_SEPARATOR()": "3644e515",
        "allowance(address,address)": "dd62ed3e",
        "approve(address,uint256)": "095ea7b3",
        "balanceOf(address)": "70a08231",
        "burn(address,uint256)": "9dc29fac",
        "cancelOwnershipHandover()": "54d1f13d",
        "completeOwnershipHandover(address)": "f04e283e",
        "decimals()": "313ce567",
        "grantRoles(address,uint256)": "1c10893f",
        "hasAllRoles(address,uint256)": "1cd64df4",
        "hasAnyRole(address,uint256)": "514e62fc",
        "mint(address,uint256)": "40c10f19",
        "name()": "06fdde03",
        "nonces(address)": "7ecebe00",
        "owner()": "8da5cb5b",
        "ownershipHandoverExpiresAt(address)": "fee81cf4",
        "permit(address,address,uint256,uint256,uint8,bytes32,bytes32)": "d505accf",
        "renounceOwnership()": "715018a6",
        "renounceRoles(uint256)": "183a4f6e",
        "requestOwnershipHandover()": "25692962",
        "revokeRoles(address,uint256)": "4a4ee7b1",
        "rolesOf(address)": "2de94807",
        "symbol()": "95d89b41",
        "totalSupply()": "18160ddd",
        "transfer(address,uint256)": "a9059cbb",
        "transferFrom(address,address,uint256)": "23b872dd",
        "transferOwnership(address)": "f2fde38b"
    },
    "gasEstimates": {
        "creation": {
            "codeDepositCost": "664600",
            "executionCost": "24324",
            "totalCost": "688924"
        },
        "external": {
            "DOMAIN_SEPARATOR()": "694",
            "allowance(address,address)": "3054",
            "approve(address,uint256)": "24275",
            "balanceOf(address)": "2720",
            "burn(address,uint256)": "53169",
            "cancelOwnershipHandover()": "6618",
            "completeOwnershipHandover(address)": "35796",
            "decimals()": "355",
            "grantRoles(address,uint256)": "28219",
            "hasAllRoles(address,uint256)": "2518",
            "hasAnyRole(address,uint256)": "2691",
            "mint(address,uint256)": "52962",
            "name()": "infinite",
            "nonces(address)": "2764",
            "owner()": "2683",
            "ownershipHandoverExpiresAt(address)": "2958",
            "permit(address,address,uint256,uint256,uint8,bytes32,bytes32)": "infinite",
            "renounceOwnership()": "11238",
            "renounceRoles(uint256)": "26014",
            "requestOwnershipHandover()": "23570",
            "revokeRoles(address,uint256)": "28434",
            "rolesOf(address)": "2566",
            "symbol()": "infinite",
            "totalSupply()": "2307",
            "transfer(address,uint256)": "infinite",
            "transferFrom(address,address,uint256)": "infinite",
            "transferOwnership(address)": "28655"
        }
    }
}