{
    "contractName": "YoloStake",
    "abi": [
        {
            "inputs": [
                {
                    "internalType": "address",
                    "name": "veNFTAddress",
                    "type": "address"
                },
                {
                    "internalType": "address",
                    "name": "yoloAddress",
                    "type": "address"
                }
            ],
            "stateMutability": "nonpayable",
            "type": "constructor"
        },
        {
            "inputs": [],
            "name": "AccessControlBadConfirmation",
            "type": "error"
        },
        {
            "inputs": [
                {
                    "internalType": "address",
                    "name": "account",
                    "type": "address"
                },
                {
                    "internalType": "bytes32",
                    "name": "neededRole",
                    "type": "bytes32"
                }
            ],
            "name": "AccessControlUnauthorizedAccount",
            "type": "error"
        },
        {
            "anonymous": false,
            "inputs": [
                {
                    "indexed": true,
                    "internalType": "bytes32",
                    "name": "role",
                    "type": "bytes32"
                },
                {
                    "indexed": true,
                    "internalType": "bytes32",
                    "name": "previousAdminRole",
                    "type": "bytes32"
                },
                {
                    "indexed": true,
                    "internalType": "bytes32",
                    "name": "newAdminRole",
                    "type": "bytes32"
                }
            ],
            "name": "RoleAdminChanged",
            "type": "event"
        },
        {
            "anonymous": false,
            "inputs": [
                {
                    "indexed": true,
                    "internalType": "bytes32",
                    "name": "role",
                    "type": "bytes32"
                },
                {
                    "indexed": true,
                    "internalType": "address",
                    "name": "account",
                    "type": "address"
                },
                {
                    "indexed": true,
                    "internalType": "address",
                    "name": "sender",
                    "type": "address"
                }
            ],
            "name": "RoleGranted",
            "type": "event"
        },
        {
            "anonymous": false,
            "inputs": [
                {
                    "indexed": true,
                    "internalType": "bytes32",
                    "name": "role",
                    "type": "bytes32"
                },
                {
                    "indexed": true,
                    "internalType": "address",
                    "name": "account",
                    "type": "address"
                },
                {
                    "indexed": true,
                    "internalType": "address",
                    "name": "sender",
                    "type": "address"
                }
            ],
            "name": "RoleRevoked",
            "type": "event"
        },
        {
            "inputs": [],
            "name": "DEFAULT_ADMIN_ROLE",
            "outputs": [
                {
                    "internalType": "bytes32",
                    "name": "",
                    "type": "bytes32"
                }
            ],
            "stateMutability": "view",
            "type": "function"
        },
        {
            "inputs": [
                {
                    "internalType": "uint256",
                    "name": "tokenId",
                    "type": "uint256"
                }
            ],
            "name": "deposit",
            "outputs": [],
            "stateMutability": "nonpayable",
            "type": "function"
        },
        {
            "inputs": [
                {
                    "internalType": "bytes32",
                    "name": "role",
                    "type": "bytes32"
                }
            ],
            "name": "getRoleAdmin",
            "outputs": [
                {
                    "internalType": "bytes32",
                    "name": "",
                    "type": "bytes32"
                }
            ],
            "stateMutability": "view",
            "type": "function"
        },
        {
            "inputs": [
                {
                    "internalType": "bytes32",
                    "name": "role",
                    "type": "bytes32"
                },
                {
                    "internalType": "address",
                    "name": "account",
                    "type": "address"
                }
            ],
            "name": "grantRole",
            "outputs": [],
            "stateMutability": "nonpayable",
            "type": "function"
        },
        {
            "inputs": [
                {
                    "internalType": "bytes32",
                    "name": "role",
                    "type": "bytes32"
                },
                {
                    "internalType": "address",
                    "name": "account",
                    "type": "address"
                }
            ],
            "name": "hasRole",
            "outputs": [
                {
                    "internalType": "bool",
                    "name": "",
                    "type": "bool"
                }
            ],
            "stateMutability": "view",
            "type": "function"
        },
        {
            "inputs": [
                {
                    "internalType": "bytes32",
                    "name": "role",
                    "type": "bytes32"
                },
                {
                    "internalType": "address",
                    "name": "callerConfirmation",
                    "type": "address"
                }
            ],
            "name": "renounceRole",
            "outputs": [],
            "stateMutability": "nonpayable",
            "type": "function"
        },
        {
            "inputs": [
                {
                    "internalType": "bytes32",
                    "name": "role",
                    "type": "bytes32"
                },
                {
                    "internalType": "address",
                    "name": "account",
                    "type": "address"
                }
            ],
            "name": "revokeRole",
            "outputs": [],
            "stateMutability": "nonpayable",
            "type": "function"
        },
        {
            "inputs": [
                {
                    "internalType": "bytes4",
                    "name": "interfaceId",
                    "type": "bytes4"
                }
            ],
            "name": "supportsInterface",
            "outputs": [
                {
                    "internalType": "bool",
                    "name": "",
                    "type": "bool"
                }
            ],
            "stateMutability": "view",
            "type": "function"
        },
        {
            "inputs": [
                {
                    "internalType": "uint256",
                    "name": "tokenId",
                    "type": "uint256"
                }
            ],
            "name": "withdraw",
            "outputs": [],
            "stateMutability": "nonpayable",
            "type": "function"
        }
    ],
    "bytecode": "60803461008d57601f61072a38819003918201601f19168301916001600160401b0383118484101761009157808492604094855283398101031261008d57610052602061004b836100a5565b92016100a5565b600280546001600160a01b039384166001600160a01b0319918216179091556003805492909316911617905560405161067090816100ba8239f35b5f80fd5b634e487b7160e01b5f52604160045260245ffd5b51906001600160a01b038216820361008d5756fe6080604081815260049182361015610015575f80fd5b5f925f3560e01c91826301ffc9a71461046d57508163248a9ca3146104445781632e1a7d4d146103705781632f2ff15d1461035257816336568abe1461031757816391d14854146102de578163a217fddf146102c3578163b6b55f25146100bc575063d547741f14610085575f80fd5b346100b85760016100b4916100af61009c366104bf565b939092838752866020528620015461050d565b6105c8565b5080f35b5080fd5b839150346100b85760203660031901126100b85760249281359160018060a01b0360608160025416845197888092635a2d1e0760e11b825288878301525afa9586156102b95785966101fe575b506001600160801b0385965116848652600160205280848720558160035416803b156101fa5784516340c10f1960e01b8152338582019081526020810193909352918791839182908490829060400103925af180156101f0579086916101dc575b50506002541692833b156101d85782516323b872dd60e01b81523392810192835230602084015260408301919091529284918491908290849082906060015b03925af19081156101cf57506101bc5750f35b6101c5906104e5565b6101cc5780f35b80fd5b513d84823e3d90fd5b8480fd5b6101e5906104e5565b6101d857848761016a565b84513d88823e3d90fd5b8680fd5b606096503d87116102b1575b601f19601f88011681019067ffffffffffffffff978183108984111761029e5781606091848852810103126101fa57606082019788118289101761028b578697855280519081600f0b820361028757859183526020810151602084015201519081151582036101fa576001600160801b0391858201529650610109565b8780fd5b604184634e487b7160e01b5f525260245ffd5b604185634e487b7160e01b5f525260245ffd5b3d965061020a565b83513d87823e3d90fd5b5050346100b857816003193601126100b85751908152602090f35b5050346100b857602091816102f2366104bf565b92908152808552209060018060a01b03165f52825260ff815f20541690519015158152f35b8383346100b857610327366104bf565b91336001600160a01b038416036103435750906100b4916105c8565b5163334bd91960e11b81528490fd5b5050346100b85760016100b49161036b61009c366104bf565b61054c565b83833461044057602036600319011261044057823590815f526001602052805f205460018060a01b03908160035416803b15610440578351632770a7eb60e21b8152338882019081526020810193909352915f91839182908490829060400103925af1801561043657610423575b509383946002541692833b156101d85782516323b872dd60e01b81523092810192835233602084015260408301919091529284918491908290849082906060016101a9565b61042e9194506104e5565b5f92856103de565b83513d5f823e3d90fd5b5f80fd5b823461044057602036600319011261044057602091355f525f82526001815f2001549051908152f35b903461044057602036600319011261044057359063ffffffff60e01b821680920361044057602091637965db0b60e01b81149081156104ae575b5015158152f35b6301ffc9a760e01b149050836104a7565b604090600319011261044057600435906024356001600160a01b03811681036104405790565b67ffffffffffffffff81116104f957604052565b634e487b7160e01b5f52604160045260245ffd5b805f525f60205260405f20335f5260205260ff60405f2054161561052e5750565b6044906040519063e2517d3f60e01b82523360048301526024820152fd5b90815f525f60205260405f209060018060a01b031690815f5260205260ff60405f205416155f146105c257815f525f60205260405f20815f5260205260405f20600160ff1982541617905533917f2f8788117e7eff1d82e926ec794901d17c78024a50270940304540a733656f0d5f80a4600190565b50505f90565b90815f525f60205260405f209060018060a01b031690815f5260205260ff60405f2054165f146105c257815f525f60205260405f20815f5260205260405f2060ff19815416905533917ff6391f5c32d9c69d2a47ea670b442974b53935d1edc7fd64eb21e047a839171b5f80a460019056fea264697066735822122058a321823536766d8614bed2f0badad9ede2a213a1900082d56e2cee70da2b3564736f6c63430008180033",
    "sourcePath": "/home/user/Development/yolo/packages/contracts/src/YoloStake.sol",
    "compiler": {
        "name": "solc",
        "version": "0.8.24+commit.e11b9ed9"
    },
    "functionHashes": {
        "DEFAULT_ADMIN_ROLE()": "a217fddf",
        "deposit(uint256)": "b6b55f25",
        "getRoleAdmin(bytes32)": "248a9ca3",
        "grantRole(bytes32,address)": "2f2ff15d",
        "hasRole(bytes32,address)": "91d14854",
        "renounceRole(bytes32,address)": "36568abe",
        "revokeRole(bytes32,address)": "d547741f",
        "supportsInterface(bytes4)": "01ffc9a7",
        "withdraw(uint256)": "2e1a7d4d"
    },
    "gasEstimates": {
        "creation": {
            "codeDepositCost": "329600",
            "executionCost": "infinite",
            "totalCost": "infinite"
        },
        "external": {
            "DEFAULT_ADMIN_ROLE()": "304",
            "deposit(uint256)": "infinite",
            "getRoleAdmin(bytes32)": "2365",
            "grantRole(bytes32,address)": "33297",
            "hasRole(bytes32,address)": "2627",
            "renounceRole(bytes32,address)": "28910",
            "revokeRole(bytes32,address)": "33393",
            "supportsInterface(bytes4)": "284",
            "withdraw(uint256)": "infinite"
        }
    }
}