{
    "contractName": "YoloStake",
    "abi": [
        {
            "inputs": [
                {
                    "internalType": "address",
                    "name": "veNFTAddress",
                    "type": "address"
                },
                {
                    "internalType": "address",
                    "name": "yoloAddress",
                    "type": "address"
                }
            ],
            "stateMutability": "nonpayable",
            "type": "constructor"
        },
        {
            "anonymous": false,
            "inputs": [
                {
                    "indexed": true,
                    "internalType": "bytes32",
                    "name": "role",
                    "type": "bytes32"
                },
                {
                    "indexed": true,
                    "internalType": "bytes32",
                    "name": "previousAdminRole",
                    "type": "bytes32"
                },
                {
                    "indexed": true,
                    "internalType": "bytes32",
                    "name": "newAdminRole",
                    "type": "bytes32"
                }
            ],
            "name": "RoleAdminChanged",
            "type": "event"
        },
        {
            "anonymous": false,
            "inputs": [
                {
                    "indexed": true,
                    "internalType": "bytes32",
                    "name": "role",
                    "type": "bytes32"
                },
                {
                    "indexed": true,
                    "internalType": "address",
                    "name": "account",
                    "type": "address"
                },
                {
                    "indexed": true,
                    "internalType": "address",
                    "name": "sender",
                    "type": "address"
                }
            ],
            "name": "RoleGranted",
            "type": "event"
        },
        {
            "anonymous": false,
            "inputs": [
                {
                    "indexed": true,
                    "internalType": "bytes32",
                    "name": "role",
                    "type": "bytes32"
                },
                {
                    "indexed": true,
                    "internalType": "address",
                    "name": "account",
                    "type": "address"
                },
                {
                    "indexed": true,
                    "internalType": "address",
                    "name": "sender",
                    "type": "address"
                }
            ],
            "name": "RoleRevoked",
            "type": "event"
        },
        {
            "inputs": [],
            "name": "DEFAULT_ADMIN_ROLE",
            "outputs": [
                {
                    "internalType": "bytes32",
                    "name": "",
                    "type": "bytes32"
                }
            ],
            "stateMutability": "view",
            "type": "function"
        },
        {
            "inputs": [
                {
                    "internalType": "uint256",
                    "name": "tokenId",
                    "type": "uint256"
                }
            ],
            "name": "deposit",
            "outputs": [],
            "stateMutability": "nonpayable",
            "type": "function"
        },
        {
            "inputs": [
                {
                    "internalType": "bytes32",
                    "name": "role",
                    "type": "bytes32"
                }
            ],
            "name": "getRoleAdmin",
            "outputs": [
                {
                    "internalType": "bytes32",
                    "name": "",
                    "type": "bytes32"
                }
            ],
            "stateMutability": "view",
            "type": "function"
        },
        {
            "inputs": [
                {
                    "internalType": "bytes32",
                    "name": "role",
                    "type": "bytes32"
                },
                {
                    "internalType": "address",
                    "name": "account",
                    "type": "address"
                }
            ],
            "name": "grantRole",
            "outputs": [],
            "stateMutability": "nonpayable",
            "type": "function"
        },
        {
            "inputs": [
                {
                    "internalType": "bytes32",
                    "name": "role",
                    "type": "bytes32"
                },
                {
                    "internalType": "address",
                    "name": "account",
                    "type": "address"
                }
            ],
            "name": "hasRole",
            "outputs": [
                {
                    "internalType": "bool",
                    "name": "",
                    "type": "bool"
                }
            ],
            "stateMutability": "view",
            "type": "function"
        },
        {
            "inputs": [
                {
                    "internalType": "bytes32",
                    "name": "role",
                    "type": "bytes32"
                },
                {
                    "internalType": "address",
                    "name": "account",
                    "type": "address"
                }
            ],
            "name": "renounceRole",
            "outputs": [],
            "stateMutability": "nonpayable",
            "type": "function"
        },
        {
            "inputs": [
                {
                    "internalType": "bytes32",
                    "name": "role",
                    "type": "bytes32"
                },
                {
                    "internalType": "address",
                    "name": "account",
                    "type": "address"
                }
            ],
            "name": "revokeRole",
            "outputs": [],
            "stateMutability": "nonpayable",
            "type": "function"
        },
        {
            "inputs": [
                {
                    "internalType": "bytes4",
                    "name": "interfaceId",
                    "type": "bytes4"
                }
            ],
            "name": "supportsInterface",
            "outputs": [
                {
                    "internalType": "bool",
                    "name": "",
                    "type": "bool"
                }
            ],
            "stateMutability": "view",
            "type": "function"
        },
        {
            "inputs": [
                {
                    "internalType": "uint256",
                    "name": "tokenId",
                    "type": "uint256"
                }
            ],
            "name": "withdraw",
            "outputs": [],
            "stateMutability": "nonpayable",
            "type": "function"
        }
    ],
    "bytecode": "60803461008d57601f610a1f38819003918201601f19168301916001600160401b0383118484101761009157808492604094855283398101031261008d57610052602061004b836100a5565b92016100a5565b600280546001600160a01b039384166001600160a01b0319918216179091556003805492909316911617905560405161096590816100ba8239f35b5f80fd5b634e487b7160e01b5f52604160045260245ffd5b51906001600160a01b038216820361008d5756fe6080604081815260049182361015610015575f80fd5b5f925f3560e01c91826301ffc9a71461051757508163248a9ca3146104ee5781632e1a7d4d1461041a5781632f2ff15d1461037e57816336568abe146102f657816391d14854146102bd578163a217fddf146102a2578163b6b55f25146100bb575063d547741f14610085575f80fd5b346100b75760016100b4916100af61009c36610569565b93909283875286602052862001546105d9565b61088c565b80f35b5080fd5b839150346100b75760203660031901126100b75760249281359160018060a01b0360608160025416845197888092635a2d1e0760e11b825288878301525afa9586156102985785966101fd575b506001600160801b0385965116848652600160205280848720558160035416803b156101f95784516340c10f1960e01b8152338582019081526020810193909352918791839182908490829060400103925af180156101ef579086916101db575b50506002541692833b156101d75782516323b872dd60e01b81523392810192835230602084015260408301919091529284918491908290849082906060015b03925af19081156101ce57506101bb5750f35b6101c49061058f565b6101cb5780f35b80fd5b513d84823e3d90fd5b8480fd5b6101e49061058f565b6101d7578487610169565b84513d88823e3d90fd5b8680fd5b95506060863d606011610290575b81610218606093836105b7565b810103126101d7578251606081019681881067ffffffffffffffff89111761027d578697855280519081600f0b820361027957859183526020810151602084015201519081151582036101f9576001600160801b0391858201529650610108565b8780fd5b604184634e487b7160e01b5f525260245ffd5b3d915061020b565b83513d87823e3d90fd5b5050346100b757816003193601126100b75751908152602090f35b5050346100b757602091816102d136610569565b92908152808552209060018060a01b03165f52825260ff815f20541690519015158152f35b839150346100b75761030736610569565b91336001600160a01b038416036103235750906100b49161088c565b608490602086519162461bcd60e51b8352820152602f60248201527f416363657373436f6e74726f6c3a2063616e206f6e6c792072656e6f756e636560448201526e103937b632b9903337b91039b2b63360891b6064820152fd5b5050346100b75761038e36610569565b9091828452836020526103a6600182862001546105d9565b828452836020528084209160018060a01b031691825f5260205260ff815f205416156103d0578380f35b82845283602052808420825f526020525f20600160ff1982541617905533917f2f8788117e7eff1d82e926ec794901d17c78024a50270940304540a733656f0d8480a45f80808380f35b8383346104ea5760203660031901126104ea57823590815f526001602052805f205460018060a01b03908160035416803b156104ea578351632770a7eb60e21b8152338882019081526020810193909352915f91839182908490829060400103925af180156104e0576104cd575b509383946002541692833b156101d75782516323b872dd60e01b81523092810192835233602084015260408301919091529284918491908290849082906060016101a8565b6104d891945061058f565b5f9285610488565b83513d5f823e3d90fd5b5f80fd5b82346104ea5760203660031901126104ea57602091355f525f82526001815f2001549051908152f35b90346104ea5760203660031901126104ea57359063ffffffff60e01b82168092036104ea57602091637965db0b60e01b8114908115610558575b5015158152f35b6301ffc9a760e01b14905083610551565b60409060031901126104ea57600435906024356001600160a01b03811681036104ea5790565b67ffffffffffffffff81116105a357604052565b634e487b7160e01b5f52604160045260245ffd5b90601f8019910116810190811067ffffffffffffffff8211176105a357604052565b805f5260205f81526040805f20335f52825260ff815f205416156105fc57505050565b8051923367ffffffffffffffff60608601818111878210176105a3578452602a865284860192843685378651156107f55760308453865192600193600110156107f5576078602189015360295b84811161084b57506108095784519160808301908111838210176105a3578552604282528582019260603685378251156107f557603084538251600110156107f557607860218401536041905b80821161079e57505061075c579261072a604861071b979461074e946044989785519a8b936106f28b86019a7f416363657373436f6e74726f6c3a206163636f756e74200000000000000000008c5251809260378801906108fd565b8401917001034b99036b4b9b9b4b733903937b6329607d1b6037840152518093868401906108fd565b010360288101895201876105b7565b5194859362461bcd60e51b85526004850152518092816024860152858501906108fd565b601f01601f19168101030190fd5b60648585519062461bcd60e51b825280600483015260248201527f537472696e67733a20686578206c656e67746820696e73756666696369656e746044820152fd5b9091600f811660108110156107f5576f181899199a1a9b1b9c1cb0b131b232b360811b901a6107cd848661091e565b5360041c9180156107e1575f190190610696565b634e487b7160e01b5f52601160045260245ffd5b634e487b7160e01b5f52603260045260245ffd5b60648686519062461bcd60e51b825280600483015260248201527f537472696e67733a20686578206c656e67746820696e73756666696369656e746044820152fd5b90600f811660108110156107f5576f181899199a1a9b1b9c1cb0b131b232b360811b901a610879838b61091e565b5360041c9080156107e1575f1901610649565b90815f525f60205260405f209060018060a01b031690815f5260205260ff60405f2054166108b8575050565b815f525f60205260405f20815f5260205260405f2060ff19815416905533917ff6391f5c32d9c69d2a47ea670b442974b53935d1edc7fd64eb21e047a839171b5f80a4565b5f5b83811061090e5750505f910152565b81810151838201526020016108ff565b9081518110156107f557016020019056fea2646970667358221220d5b042ff03e8aec71a9cbdbcbe28db7aab57b18854cee1eccb155b7319197ce364736f6c63430008180033",
    "sourcePath": "/home/user/Development/yolo/packages/contracts/src/YoloStake.sol",
    "compiler": {
        "name": "solc",
        "version": "0.8.24+commit.e11b9ed9"
    },
    "functionHashes": {
        "DEFAULT_ADMIN_ROLE()": "a217fddf",
        "deposit(uint256)": "b6b55f25",
        "getRoleAdmin(bytes32)": "248a9ca3",
        "grantRole(bytes32,address)": "2f2ff15d",
        "hasRole(bytes32,address)": "91d14854",
        "renounceRole(bytes32,address)": "36568abe",
        "revokeRole(bytes32,address)": "d547741f",
        "supportsInterface(bytes4)": "01ffc9a7",
        "withdraw(uint256)": "2e1a7d4d"
    },
    "gasEstimates": {
        "creation": {
            "codeDepositCost": "481000",
            "executionCost": "infinite",
            "totalCost": "infinite"
        },
        "external": {
            "DEFAULT_ADMIN_ROLE()": "304",
            "deposit(uint256)": "infinite",
            "getRoleAdmin(bytes32)": "2365",
            "grantRole(bytes32,address)": "infinite",
            "hasRole(bytes32,address)": "2627",
            "renounceRole(bytes32,address)": "28900",
            "revokeRole(bytes32,address)": "infinite",
            "supportsInterface(bytes4)": "284",
            "withdraw(uint256)": "infinite"
        }
    }
}